{
    "contractName": "SingleNftMinter",
    "abi": [
        {
            "anonymous": false,
            "inputs": [
                {
                    "indexed": false,
                    "internalType": "address",
                    "name": "previousAdmin",
                    "type": "address"
                },
                {
                    "indexed": false,
                    "internalType": "address",
                    "name": "newAdmin",
                    "type": "address"
                }
            ],
            "name": "AdminChanged",
            "type": "event"
        },
        {
            "anonymous": false,
            "inputs": [
                {
                    "indexed": true,
                    "internalType": "address",
                    "name": "account",
                    "type": "address"
                },
                {
                    "indexed": true,
                    "internalType": "address",
                    "name": "operator",
                    "type": "address"
                },
                {
                    "indexed": false,
                    "internalType": "bool",
                    "name": "approved",
                    "type": "bool"
                }
            ],
            "name": "ApprovalForAll",
            "type": "event"
        },
        {
            "anonymous": false,
            "inputs": [
                {
                    "indexed": true,
                    "internalType": "address",
                    "name": "beacon",
                    "type": "address"
                }
            ],
            "name": "BeaconUpgraded",
            "type": "event"
        },
        {
            "anonymous": false,
            "inputs": [
                {
                    "indexed": false,
                    "internalType": "address",
                    "name": "collectionAddress",
                    "type": "address"
                },
                {
                    "indexed": true,
                    "internalType": "address",
                    "name": "collectionOwner",
                    "type": "address"
                },
                {
                    "indexed": false,
                    "internalType": "string",
                    "name": "collectionName",
                    "type": "string"
                }
            ],
            "name": "CollectionInit",
            "type": "event"
        },
        {
            "anonymous": false,
            "inputs": [
                {
                    "indexed": false,
                    "internalType": "uint8",
                    "name": "version",
                    "type": "uint8"
                }
            ],
            "name": "Initialized",
            "type": "event"
        },
        {
            "anonymous": false,
            "inputs": [
                {
                    "indexed": true,
                    "internalType": "address",
                    "name": "operator",
                    "type": "address"
                },
                {
                    "indexed": true,
                    "internalType": "address",
                    "name": "from",
                    "type": "address"
                },
                {
                    "indexed": true,
                    "internalType": "address",
                    "name": "to",
                    "type": "address"
                },
                {
                    "indexed": false,
                    "internalType": "uint256[]",
                    "name": "ids",
                    "type": "uint256[]"
                }
            ],
            "name": "TransferBatch",
            "type": "event"
        },
        {
            "anonymous": false,
            "inputs": [
                {
                    "indexed": true,
                    "internalType": "address",
                    "name": "operator",
                    "type": "address"
                },
                {
                    "indexed": true,
                    "internalType": "address",
                    "name": "from",
                    "type": "address"
                },
                {
                    "indexed": true,
                    "internalType": "address",
                    "name": "to",
                    "type": "address"
                },
                {
                    "indexed": false,
                    "internalType": "uint256[]",
                    "name": "ids",
                    "type": "uint256[]"
                },
                {
                    "indexed": false,
                    "internalType": "uint256[]",
                    "name": "values",
                    "type": "uint256[]"
                }
            ],
            "name": "TransferBatch",
            "type": "event"
        },
        {
            "anonymous": false,
            "inputs": [
                {
                    "indexed": true,
                    "internalType": "address",
                    "name": "operator",
                    "type": "address"
                },
                {
                    "indexed": true,
                    "internalType": "address",
                    "name": "from",
                    "type": "address"
                },
                {
                    "indexed": true,
                    "internalType": "address",
                    "name": "to",
                    "type": "address"
                },
                {
                    "indexed": false,
                    "internalType": "uint256",
                    "name": "id",
                    "type": "uint256"
                },
                {
                    "indexed": false,
                    "internalType": "uint256",
                    "name": "value",
                    "type": "uint256"
                }
            ],
            "name": "TransferSingle",
            "type": "event"
        },
        {
            "anonymous": false,
            "inputs": [
                {
                    "indexed": false,
                    "internalType": "string",
                    "name": "value",
                    "type": "string"
                },
                {
                    "indexed": true,
                    "internalType": "uint256",
                    "name": "id",
                    "type": "uint256"
                }
            ],
            "name": "URI",
            "type": "event"
        },
        {
            "anonymous": false,
            "inputs": [
                {
                    "indexed": true,
                    "internalType": "address",
                    "name": "implementation",
                    "type": "address"
                }
            ],
            "name": "Upgraded",
            "type": "event"
        },
        {
            "inputs": [
                {
                    "internalType": "address",
                    "name": "account",
                    "type": "address"
                },
                {
                    "internalType": "uint256",
                    "name": "id",
                    "type": "uint256"
                }
            ],
            "name": "balanceOf",
            "outputs": [
                {
                    "internalType": "uint256",
                    "name": "",
                    "type": "uint256"
                }
            ],
            "stateMutability": "view",
            "type": "function"
        },
        {
            "inputs": [
                {
                    "internalType": "address[]",
                    "name": "accounts",
                    "type": "address[]"
                },
                {
                    "internalType": "uint256[]",
                    "name": "ids",
                    "type": "uint256[]"
                }
            ],
            "name": "balanceOfBatch",
            "outputs": [
                {
                    "internalType": "uint256[]",
                    "name": "",
                    "type": "uint256[]"
                }
            ],
            "stateMutability": "view",
            "type": "function"
        },
        {
            "inputs": [],
            "name": "baseURI",
            "outputs": [
                {
                    "internalType": "string",
                    "name": "",
                    "type": "string"
                }
            ],
            "stateMutability": "view",
            "type": "function"
        },
        {
            "inputs": [],
            "name": "deleteDefaultRoyalty",
            "outputs": [],
            "stateMutability": "nonpayable",
            "type": "function"
        },
        {
            "inputs": [
                {
                    "internalType": "string",
                    "name": "name_",
                    "type": "string"
                },
                {
                    "internalType": "string",
                    "name": "symbol_",
                    "type": "string"
                },
                {
                    "internalType": "address",
                    "name": "deployer",
                    "type": "address"
                }
            ],
            "name": "initialize",
            "outputs": [],
            "stateMutability": "nonpayable",
            "type": "function"
        },
        {
            "inputs": [
                {
                    "internalType": "address",
                    "name": "account",
                    "type": "address"
                },
                {
                    "internalType": "address",
                    "name": "operator",
                    "type": "address"
                }
            ],
            "name": "isApprovedForAll",
            "outputs": [
                {
                    "internalType": "bool",
                    "name": "",
                    "type": "bool"
                }
            ],
            "stateMutability": "view",
            "type": "function"
        },
        {
            "inputs": [
                {
                    "internalType": "address",
                    "name": "to",
                    "type": "address"
                },
                {
                    "internalType": "uint256",
                    "name": "id",
                    "type": "uint256"
                },
                {
                    "internalType": "uint256",
                    "name": "amount",
                    "type": "uint256"
                },
                {
                    "internalType": "string",
                    "name": "uri_",
                    "type": "string"
                },
                {
                    "internalType": "bytes",
                    "name": "data",
                    "type": "bytes"
                }
            ],
            "name": "mint",
            "outputs": [],
            "stateMutability": "nonpayable",
            "type": "function"
        },
        {
            "inputs": [
                {
                    "internalType": "address",
                    "name": "to",
                    "type": "address"
                },
                {
                    "internalType": "uint256[]",
                    "name": "ids",
                    "type": "uint256[]"
                },
                {
                    "internalType": "string[]",
                    "name": "uris",
                    "type": "string[]"
                }
            ],
            "name": "mintBatch",
            "outputs": [],
            "stateMutability": "nonpayable",
            "type": "function"
        },
        {
            "inputs": [],
            "name": "name",
            "outputs": [
                {
                    "internalType": "string",
                    "name": "",
                    "type": "string"
                }
            ],
            "stateMutability": "view",
            "type": "function"
        },
        {
            "inputs": [],
            "name": "owner",
            "outputs": [
                {
                    "internalType": "address",
                    "name": "",
                    "type": "address"
                }
            ],
            "stateMutability": "view",
            "type": "function"
        },
        {
            "inputs": [],
            "name": "proxiableUUID",
            "outputs": [
                {
                    "internalType": "bytes32",
                    "name": "",
                    "type": "bytes32"
                }
            ],
            "stateMutability": "view",
            "type": "function"
        },
        {
            "inputs": [
                {
                    "internalType": "uint256",
                    "name": "tokenId",
                    "type": "uint256"
                }
            ],
            "name": "resetTokenRoyalty",
            "outputs": [],
            "stateMutability": "nonpayable",
            "type": "function"
        },
        {
            "inputs": [
                {
                    "internalType": "uint256",
                    "name": "_tokenId",
                    "type": "uint256"
                },
                {
                    "internalType": "uint256",
                    "name": "_salePrice",
                    "type": "uint256"
                }
            ],
            "name": "royaltyInfo",
            "outputs": [
                {
                    "internalType": "address",
                    "name": "",
                    "type": "address"
                },
                {
                    "internalType": "uint256",
                    "name": "",
                    "type": "uint256"
                }
            ],
            "stateMutability": "view",
            "type": "function"
        },
        {
            "inputs": [
                {
                    "internalType": "address",
                    "name": "from",
                    "type": "address"
                },
                {
                    "internalType": "address",
                    "name": "to",
                    "type": "address"
                },
                {
                    "internalType": "uint256[]",
                    "name": "ids",
                    "type": "uint256[]"
                },
                {
                    "internalType": "uint256[]",
                    "name": "amounts",
                    "type": "uint256[]"
                },
                {
                    "internalType": "bytes",
                    "name": "data",
                    "type": "bytes"
                }
            ],
            "name": "safeBatchTransferFrom",
            "outputs": [],
            "stateMutability": "nonpayable",
            "type": "function"
        },
        {
            "inputs": [
                {
                    "internalType": "address",
                    "name": "from",
                    "type": "address"
                },
                {
                    "internalType": "address",
                    "name": "to",
                    "type": "address"
                },
                {
                    "internalType": "uint256",
                    "name": "id",
                    "type": "uint256"
                },
                {
                    "internalType": "uint256",
                    "name": "amount",
                    "type": "uint256"
                },
                {
                    "internalType": "bytes",
                    "name": "data",
                    "type": "bytes"
                }
            ],
            "name": "safeTransferFrom",
            "outputs": [],
            "stateMutability": "nonpayable",
            "type": "function"
        },
        {
            "inputs": [
                {
                    "internalType": "address",
                    "name": "operator",
                    "type": "address"
                },
                {
                    "internalType": "bool",
                    "name": "approved",
                    "type": "bool"
                }
            ],
            "name": "setApprovalForAll",
            "outputs": [],
            "stateMutability": "nonpayable",
            "type": "function"
        },
        {
            "inputs": [
                {
                    "internalType": "address",
                    "name": "receiver",
                    "type": "address"
                },
                {
                    "internalType": "uint96",
                    "name": "feeNumerator",
                    "type": "uint96"
                }
            ],
            "name": "setDefaultRoyalty",
            "outputs": [],
            "stateMutability": "nonpayable",
            "type": "function"
        },
        {
            "inputs": [
                {
                    "internalType": "uint256",
                    "name": "tokenId",
                    "type": "uint256"
                },
                {
                    "internalType": "address",
                    "name": "receiver",
                    "type": "address"
                },
                {
                    "internalType": "uint96",
                    "name": "feeNumerator",
                    "type": "uint96"
                }
            ],
            "name": "setTokenRoyalty",
            "outputs": [],
            "stateMutability": "nonpayable",
            "type": "function"
        },
        {
            "inputs": [
                {
                    "internalType": "bytes4",
                    "name": "interfaceId",
                    "type": "bytes4"
                }
            ],
            "name": "supportsInterface",
            "outputs": [
                {
                    "internalType": "bool",
                    "name": "",
                    "type": "bool"
                }
            ],
            "stateMutability": "view",
            "type": "function"
        },
        {
            "inputs": [],
            "name": "symbol",
            "outputs": [
                {
                    "internalType": "string",
                    "name": "",
                    "type": "string"
                }
            ],
            "stateMutability": "view",
            "type": "function"
        },
        {
            "inputs": [
                {
                    "internalType": "address",
                    "name": "newImplementation",
                    "type": "address"
                }
            ],
            "name": "upgradeTo",
            "outputs": [],
            "stateMutability": "nonpayable",
            "type": "function"
        },
        {
            "inputs": [
                {
                    "internalType": "address",
                    "name": "newImplementation",
                    "type": "address"
                },
                {
                    "internalType": "bytes",
                    "name": "data",
                    "type": "bytes"
                }
            ],
            "name": "upgradeToAndCall",
            "outputs": [],
            "stateMutability": "payable",
            "type": "function"
        },
        {
            "inputs": [
                {
                    "internalType": "uint256",
                    "name": "id",
                    "type": "uint256"
                }
            ],
            "name": "uri",
            "outputs": [
                {
                    "internalType": "string",
                    "name": "",
                    "type": "string"
                }
            ],
            "stateMutability": "view",
            "type": "function"
        },
        {
            "inputs": [],
            "name": "withdraw",
            "outputs": [],
            "stateMutability": "nonpayable",
            "type": "function"
        }
    ],
    "bytecode": "60a06040523060805234801561001457600080fd5b50608051612db461004c6000396000818161094d0152818161098d01528181610c0001528181610c400152610ccf0152612db46000f3fe60806040526004361061014a5760003560e01c80634f1ef286116100b657806395d89b411161006f57806395d89b41146103bc578063a22cb465146103d1578063a4b645eb146103f1578063aa1b103f14610411578063e985e9c514610426578063f242432a1461047057600080fd5b80634f1ef2861461031757806352d1902d1461032a5780635944c7531461033f5780636c0360eb1461035f5780638a616bc0146103745780638da5cb5b1461039457600080fd5b8063146d9ddc11610108578063146d9ddc146102365780632a55205a146102565780632eb2c2d6146102955780633659cfe6146102b55780633ccfd60b146102d55780634e1273f4146102ea57600080fd5b8062fdd58e1461014f57806301ffc9a71461018257806304634d8d146101b257806306fdde03146101d4578063077f224a146101f65780630e89341c14610216575b600080fd5b34801561015b57600080fd5b5061016f61016a366004611f40565b610490565b6040519081526020015b60405180910390f35b34801561018e57600080fd5b506101a261019d366004611f80565b61052c565b6040519015158152602001610179565b3480156101be57600080fd5b506101d26101cd366004611fb4565b61056c565b005b3480156101e057600080fd5b506101e96105a4565b6040516101799190612037565b34801561020257600080fd5b506101d26102113660046120ff565b610636565b34801561022257600080fd5b506101e9610231366004612172565b6107bb565b34801561024257600080fd5b506101d261025136600461221f565b6107c6565b34801561026257600080fd5b50610276610271366004612311565b610800565b604080516001600160a01b039093168352602083019190915201610179565b3480156102a157600080fd5b506101d26102b0366004612333565b6108ac565b3480156102c157600080fd5b506101d26102d03660046123dc565b610943565b3480156102e157600080fd5b506101d2610a22565b3480156102f657600080fd5b5061030a6103053660046123f7565b610acd565b60405161017991906124fc565b6101d261032536600461250f565b610bf6565b34801561033657600080fd5b5061016f610cc2565b34801561034b57600080fd5b506101d261035a366004612552565b610d76565b34801561036b57600080fd5b506101e9610dab565b34801561038057600080fd5b506101d261038f366004612172565b610dbb565b3480156103a057600080fd5b5060fd546040516001600160a01b039091168152602001610179565b3480156103c857600080fd5b506101e9610df6565b3480156103dd57600080fd5b506101d26103ec366004612585565b610e05565b3480156103fd57600080fd5b506101d261040c3660046125c1565b610e10565b34801561041d57600080fd5b506101d2610e1d565b34801561043257600080fd5b506101a2610441366004612618565b6001600160a01b03808316600090815260ff602081815260408084209486168452939052919020541692915050565b34801561047c57600080fd5b506101d261048b366004612642565b610e53565b60006001600160a01b0383166105015760405162461bcd60e51b815260206004820152602b60248201527f455243313135353a2062616c616e636520717565727920666f7220746865207a60448201526a65726f206164647265737360a81b60648201526084015b60405180910390fd5b50600081815260fe602090815260408083206001600160a01b03861684529091529020545b92915050565b60006001600160e01b03198216636cdb3d1360e11b148061055d57506001600160e01b031982166303a24d0760e21b145b80610526575061052682610eda565b60fd546001600160a01b031633146105965760405162461bcd60e51b81526004016104f8906126a6565b6105a08282610f0f565b5050565b606060fb80546105b3906126db565b80601f01602080910402602001604051908101604052809291908181526020018280546105df906126db565b801561062c5780601f106106015761010080835404028352916020019161062c565b820191906000526020600020905b81548152906001019060200180831161060f57829003601f168201915b5050505050905090565b600054610100900460ff16158080156106565750600054600160ff909116105b806106705750303b158015610670575060005460ff166001145b6106d35760405162461bcd60e51b815260206004820152602e60248201527f496e697469616c697a61626c653a20636f6e747261637420697320616c72656160448201526d191e481a5b9a5d1a585b1a5e995960921b60648201526084016104f8565b6000805460ff1916600117905580156106f6576000805461ff0019166101001790555b60fd80546001600160a01b0319166001600160a01b03841617905560fb61071d858261275b565b5060fc61072a848261275b565b50816001600160a01b03167f920df30d0155be66a309b79ce7643c3c6e42853744b689c4e812f29dfe9effca3060fb60405161076792919061281a565b60405180910390a280156107b5576000805461ff0019169055604051600181527f7f26b83ff96e1f2b6a682f133852f6798a09c465da95921460cefb38474024989060200160405180910390a15b50505050565b606061052682610fc9565b60fd546001600160a01b031633146107f05760405162461bcd60e51b81526004016104f8906126a6565b6107fb8383836110d1565b505050565b600082815260ca602090815260408083208151808301909252546001600160a01b038116808352600160a01b9091046001600160601b031692820192909252829161087557506040805180820190915260c9546001600160a01b0381168252600160a01b90046001600160601b031660208201525b602081015160009061271090610894906001600160601b0316876128cb565b61089e91906128f8565b915196919550909350505050565b6001600160a01b0385163314806108c857506108c88533610441565b61092f5760405162461bcd60e51b815260206004820152603260248201527f455243313135353a207472616e736665722063616c6c6572206973206e6f74206044820152711bdddb995c881b9bdc88185c1c1c9bdd995960721b60648201526084016104f8565b61093c8585858585611203565b5050505050565b6001600160a01b037f000000000000000000000000000000000000000000000000000000000000000016300361098b5760405162461bcd60e51b81526004016104f89061290c565b7f00000000000000000000000000000000000000000000000000000000000000006001600160a01b03166109d4600080516020612d38833981519152546001600160a01b031690565b6001600160a01b0316146109fa5760405162461bcd60e51b81526004016104f890612958565b610a03816113e1565b60408051600080825260208201909252610a1f9183919061140b565b50565b6000610a3660fd546001600160a01b031690565b6001600160a01b03164760405160006040518083038185875af1925050503d8060008114610a80576040519150601f19603f3d011682016040523d82523d6000602084013e610a85565b606091505b5050905080610a1f5760405162461bcd60e51b81526020600482015260146024820152732330b4b632b2103a379039b2b7321022ba3432b960611b60448201526064016104f8565b60608151835114610b325760405162461bcd60e51b815260206004820152602960248201527f455243313135353a206163636f756e747320616e6420696473206c656e677468604482015268040dad2e6dac2e8c6d60bb1b60648201526084016104f8565b600083516001600160401b03811115610b4d57610b4d61204a565b604051908082528060200260200182016040528015610b76578160200160208202803683370190505b50905060005b8451811015610bee57610bc1858281518110610b9a57610b9a6129a4565b6020026020010151858381518110610bb457610bb46129a4565b6020026020010151610490565b828281518110610bd357610bd36129a4565b6020908102919091010152610be7816129ba565b9050610b7c565b509392505050565b6001600160a01b037f0000000000000000000000000000000000000000000000000000000000000000163003610c3e5760405162461bcd60e51b81526004016104f89061290c565b7f00000000000000000000000000000000000000000000000000000000000000006001600160a01b0316610c87600080516020612d38833981519152546001600160a01b031690565b6001600160a01b031614610cad5760405162461bcd60e51b81526004016104f890612958565b610cb6826113e1565b6105a08282600161140b565b6000306001600160a01b037f00000000000000000000000000000000000000000000000000000000000000001614610d625760405162461bcd60e51b815260206004820152603860248201527f555550535570677261646561626c653a206d757374206e6f742062652063616c60448201527f6c6564207468726f7567682064656c656761746563616c6c000000000000000060648201526084016104f8565b50600080516020612d388339815191525b90565b60fd546001600160a01b03163314610da05760405162461bcd60e51b81526004016104f8906126a6565b6107fb838383611576565b606061010180546105b3906126db565b60fd546001600160a01b03163314610de55760405162461bcd60e51b81526004016104f8906126a6565b600090815260ca6020526040812055565b606060fc80546105b3906126db565b6105a0338383611641565b61093c8585858585611721565b60fd546001600160a01b03163314610e475760405162461bcd60e51b81526004016104f8906126a6565b610e51600060c955565b565b6001600160a01b038516331480610e6f5750610e6f8533610441565b610ecd5760405162461bcd60e51b815260206004820152602960248201527f455243313135353a2063616c6c6572206973206e6f74206f776e6572206e6f7260448201526808185c1c1c9bdd995960ba1b60648201526084016104f8565b61093c85858585856117fe565b60006001600160e01b0319821663152a902d60e11b148061052657506301ffc9a760e01b6001600160e01b0319831614610526565b6127106001600160601b0382161115610f3a5760405162461bcd60e51b81526004016104f8906129d3565b6001600160a01b038216610f905760405162461bcd60e51b815260206004820152601960248201527f455243323938313a20696e76616c69642072656365697665720000000000000060448201526064016104f8565b604080518082019091526001600160a01b039092168083526001600160601b039091166020909201829052600160a01b9091021760c955565b60008181526101006020526040812080546060929190610fe8906126db565b80601f0160208091040260200160405190810160405280929190818152602001828054611014906126db565b80156110615780601f1061103657610100808354040283529160200191611061565b820191906000526020600020905b81548152906001019060200180831161104457829003601f168201915b505050505090506000611072610dab565b90508051600003611084575092915050565b8151156110b657808260405160200161109e929190612a1d565b60405160208183030381529060405292505050919050565b806110c085611928565b60405160200161109e929190612a1d565b6001600160a01b0383166110f75760405162461bcd60e51b81526004016104f890612a4c565b815160005b818110156111af57600160fe600086848151811061111c5761111c6129a4565b602002602001015181526020019081526020016000206000876001600160a01b03166001600160a01b0316815260200190815260200160002060008282546111649190612a8d565b925050819055506111a7848281518110611180576111806129a4565b602002602001015184838151811061119a5761119a6129a4565b6020026020010151611a30565b6001016110fc565b506001600160a01b0384166000336001600160a01b03167f2e75a6cf483a33fd7e40b01fc5b561361f6e9b2d5a492f866bd66ca430a8c557866040516111f591906124fc565b60405180910390a450505050565b81518351146112655760405162461bcd60e51b815260206004820152602860248201527f455243313135353a2069647320616e6420616d6f756e7473206c656e677468206044820152670dad2e6dac2e8c6d60c31b60648201526084016104f8565b6001600160a01b03841661128b5760405162461bcd60e51b81526004016104f890612aa0565b3360005b84518110156113755760008582815181106112ac576112ac6129a4565b6020026020010151905060008583815181106112ca576112ca6129a4565b602090810291909101810151600084815260fe835260408082206001600160a01b038e16835290935291909120549091508181101561131b5760405162461bcd60e51b81526004016104f890612ae5565b600083815260fe602090815260408083206001600160a01b038e8116855292528083208585039055908b1682528120805484929061135a908490612a8d565b925050819055505050508061136e906129ba565b905061128f565b50846001600160a01b0316866001600160a01b0316826001600160a01b03167f2e75a6cf483a33fd7e40b01fc5b561361f6e9b2d5a492f866bd66ca430a8c557876040516113c391906124fc565b60405180910390a46113d9818787878787611a8e565b505050505050565b60fd546001600160a01b03163314610a1f5760405162461bcd60e51b81526004016104f8906126a6565b7f4910fdfa16fed3260ed0e7147f7cc6da11a60208b5b9406d12a635614ffd91435460ff161561143e576107fb83611be9565b826001600160a01b03166352d1902d6040518163ffffffff1660e01b8152600401602060405180830381865afa925050508015611498575060408051601f3d908101601f1916820190925261149591810190612b2f565b60015b6114fb5760405162461bcd60e51b815260206004820152602e60248201527f45524331393637557067726164653a206e657720696d706c656d656e7461746960448201526d6f6e206973206e6f74205555505360901b60648201526084016104f8565b600080516020612d38833981519152811461156a5760405162461bcd60e51b815260206004820152602960248201527f45524331393637557067726164653a20756e737570706f727465642070726f786044820152681a58589b195555525160ba1b60648201526084016104f8565b506107fb838383611c85565b6127106001600160601b03821611156115a15760405162461bcd60e51b81526004016104f8906129d3565b6001600160a01b0382166115f75760405162461bcd60e51b815260206004820152601b60248201527f455243323938313a20496e76616c696420706172616d6574657273000000000060448201526064016104f8565b6040805180820182526001600160a01b0393841681526001600160601b039283166020808301918252600096875260ca90529190942093519051909116600160a01b029116179055565b816001600160a01b0316836001600160a01b0316036116b45760405162461bcd60e51b815260206004820152602960248201527f455243313135353a2073657474696e6720617070726f76616c20737461747573604482015268103337b91039b2b63360b91b60648201526084016104f8565b6001600160a01b03838116600081815260ff6020908152604080832094871680845294825291829020805460ff191686151590811790915591519182527f17307eab39ab6107e8899845ad3d59bd9653f200f220920489ca2b5937696c31910160405180910390a3505050565b6001600160a01b0385166117475760405162461bcd60e51b81526004016104f890612a4c565b336117618160008861175889611caa565b61093c89611caa565b600085815260fe602090815260408083206001600160a01b038a16845290915281208054869290611793908490612a8d565b909155506117a390508584611a30565b60408051868152602081018690526001600160a01b0380891692600092918516917fc3d58168c5ae7397731d063d5bbf3d657854427343f4c083240f7aacaa2d0f62910160405180910390a46113d981600088888887611cf5565b6001600160a01b0384166118245760405162461bcd60e51b81526004016104f890612aa0565b3361183d81878761183488611caa565b61093c88611caa565b600084815260fe602090815260408083206001600160a01b038a168452909152902054838110156118805760405162461bcd60e51b81526004016104f890612ae5565b600085815260fe602090815260408083206001600160a01b038b81168552925280832087850390559088168252812080548692906118bf908490612a8d565b909155505060408051868152602081018690526001600160a01b03808916928a821692918616917fc3d58168c5ae7397731d063d5bbf3d657854427343f4c083240f7aacaa2d0f62910160405180910390a461191f828888888888611cf5565b50505050505050565b60608160000361194f5750506040805180820190915260018152600360fc1b602082015290565b8160005b81156119795780611963816129ba565b91506119729050600a836128f8565b9150611953565b6000816001600160401b038111156119935761199361204a565b6040519080825280601f01601f1916602001820160405280156119bd576020820181803683370190505b5090505b8415611a28576119d2600183612b48565b91506119df600a86612b5b565b6119ea906030612a8d565b60f81b8183815181106119ff576119ff6129a4565b60200101906001600160f81b031916908160001a905350611a21600a866128f8565b94506119c1565b949350505050565b600082815261010060205260409020611a49828261275b565b50817f6bb7ff708619ba0610cba295a58592e0451dee2622938c8755667688daf3529b611a7584610fc9565b604051611a829190612037565b60405180910390a25050565b6001600160a01b0384163b156113d95760405163bc197c8160e01b81526001600160a01b0385169063bc197c8190611ad29089908990889088908890600401612b6f565b6020604051808303816000875af1925050508015611b0d575060408051601f3d908101601f19168201909252611b0a91810190612bcd565b60015b611bb957611b19612bea565b806308c379a003611b525750611b2d612c05565b80611b385750611b54565b8060405162461bcd60e51b81526004016104f89190612037565b505b60405162461bcd60e51b815260206004820152603460248201527f455243313135353a207472616e7366657220746f206e6f6e20455243313135356044820152732932b1b2b4bb32b91034b6b83632b6b2b73a32b960611b60648201526084016104f8565b6001600160e01b0319811663bc197c8160e01b1461191f5760405162461bcd60e51b81526004016104f890612c8e565b6001600160a01b0381163b611c565760405162461bcd60e51b815260206004820152602d60248201527f455243313936373a206e657720696d706c656d656e746174696f6e206973206e60448201526c1bdd08184818dbdb9d1c9858dd609a1b60648201526084016104f8565b600080516020612d3883398151915280546001600160a01b0319166001600160a01b0392909216919091179055565b611c8e83611db0565b600082511180611c9b5750805b156107fb576107b58383611df0565b60408051600180825281830190925260609160009190602080830190803683370190505090508281600081518110611ce457611ce46129a4565b602090810291909101015292915050565b6001600160a01b0384163b156113d95760405163f23a6e6160e01b81526001600160a01b0385169063f23a6e6190611d399089908990889088908890600401612cd6565b6020604051808303816000875af1925050508015611d74575060408051601f3d908101601f19168201909252611d7191810190612bcd565b60015b611d8057611b19612bea565b6001600160e01b0319811663f23a6e6160e01b1461191f5760405162461bcd60e51b81526004016104f890612c8e565b611db981611be9565b6040516001600160a01b038216907fbc7cd75a20ee27fd9adebab32041f755214dbc6bffa90cc0225b39da2e5c2d3b90600090a250565b60606001600160a01b0383163b611e585760405162461bcd60e51b815260206004820152602660248201527f416464726573733a2064656c65676174652063616c6c20746f206e6f6e2d636f6044820152651b9d1c9858dd60d21b60648201526084016104f8565b600080846001600160a01b031684604051611e739190612d1b565b600060405180830381855af49150503d8060008114611eae576040519150601f19603f3d011682016040523d82523d6000602084013e611eb3565b606091505b5091509150611edb8282604051806060016040528060278152602001612d5860279139611ee4565b95945050505050565b60608315611ef3575081611f1d565b825115611f035782518084602001fd5b8160405162461bcd60e51b81526004016104f89190612037565b9392505050565b80356001600160a01b0381168114611f3b57600080fd5b919050565b60008060408385031215611f5357600080fd5b611f5c83611f24565b946020939093013593505050565b6001600160e01b031981168114610a1f57600080fd5b600060208284031215611f9257600080fd5b8135611f1d81611f6a565b80356001600160601b0381168114611f3b57600080fd5b60008060408385031215611fc757600080fd5b611fd083611f24565b9150611fde60208401611f9d565b90509250929050565b60005b83811015612002578181015183820152602001611fea565b50506000910152565b60008151808452612023816020860160208601611fe7565b601f01601f19169290920160200192915050565b602081526000611f1d602083018461200b565b634e487b7160e01b600052604160045260246000fd5b601f8201601f191681016001600160401b03811182821017156120855761208561204a565b6040525050565b600082601f83011261209d57600080fd5b81356001600160401b038111156120b6576120b661204a565b6040516120cd601f8301601f191660200182612060565b8181528460208386010111156120e257600080fd5b816020850160208301376000918101602001919091529392505050565b60008060006060848603121561211457600080fd5b83356001600160401b038082111561212b57600080fd5b6121378783880161208c565b9450602086013591508082111561214d57600080fd5b5061215a8682870161208c565b92505061216960408501611f24565b90509250925092565b60006020828403121561218457600080fd5b5035919050565b60006001600160401b038211156121a4576121a461204a565b5060051b60200190565b600082601f8301126121bf57600080fd5b813560206121cc8261218b565b6040516121d98282612060565b83815260059390931b85018201928281019150868411156121f957600080fd5b8286015b8481101561221457803583529183019183016121fd565b509695505050505050565b60008060006060848603121561223457600080fd5b61223d84611f24565b92506020808501356001600160401b038082111561225a57600080fd5b612266888389016121ae565b9450604087013591508082111561227c57600080fd5b818701915087601f83011261229057600080fd5b813561229b8161218b565b6040516122a88282612060565b82815260059290921b840185019185810191508a8311156122c857600080fd5b8585015b83811015612300578035858111156122e45760008081fd5b6122f28d89838a010161208c565b8452509186019186016122cc565b508096505050505050509250925092565b6000806040838503121561232457600080fd5b50508035926020909101359150565b600080600080600060a0868803121561234b57600080fd5b61235486611f24565b945061236260208701611f24565b935060408601356001600160401b038082111561237e57600080fd5b61238a89838a016121ae565b945060608801359150808211156123a057600080fd5b6123ac89838a016121ae565b935060808801359150808211156123c257600080fd5b506123cf8882890161208c565b9150509295509295909350565b6000602082840312156123ee57600080fd5b611f1d82611f24565b6000806040838503121561240a57600080fd5b82356001600160401b038082111561242157600080fd5b818501915085601f83011261243557600080fd5b813560206124428261218b565b60405161244f8282612060565b83815260059390931b850182019282810191508984111561246f57600080fd5b948201945b838610156124945761248586611f24565b82529482019490820190612474565b965050860135925050808211156124aa57600080fd5b506124b7858286016121ae565b9150509250929050565b600081518084526020808501945080840160005b838110156124f1578151875295820195908201906001016124d5565b509495945050505050565b602081526000611f1d60208301846124c1565b6000806040838503121561252257600080fd5b61252b83611f24565b915060208301356001600160401b0381111561254657600080fd5b6124b78582860161208c565b60008060006060848603121561256757600080fd5b8335925061257760208501611f24565b915061216960408501611f9d565b6000806040838503121561259857600080fd5b6125a183611f24565b9150602083013580151581146125b657600080fd5b809150509250929050565b600080600080600060a086880312156125d957600080fd5b6125e286611f24565b9450602086013593506040860135925060608601356001600160401b038082111561260c57600080fd5b6123ac89838a0161208c565b6000806040838503121561262b57600080fd5b61263483611f24565b9150611fde60208401611f24565b600080600080600060a0868803121561265a57600080fd5b61266386611f24565b945061267160208701611f24565b9350604086013592506060860135915060808601356001600160401b0381111561269a57600080fd5b6123cf8882890161208c565b6020808252818101527f4f776e61626c653a2063616c6c6572206973206e6f7420746865206f776e6572604082015260600190565b600181811c908216806126ef57607f821691505b60208210810361270f57634e487b7160e01b600052602260045260246000fd5b50919050565b601f8211156107fb57600081815260208120601f850160051c8101602086101561273c5750805b601f850160051c820191505b818110156113d957828155600101612748565b81516001600160401b038111156127745761277461204a565b6127888161278284546126db565b84612715565b602080601f8311600181146127bd57600084156127a55750858301515b600019600386901b1c1916600185901b1785556113d9565b600085815260208120601f198616915b828110156127ec578886015182559484019460019091019084016127cd565b508582101561280a5787850151600019600388901b60f8161c191681555b5050505050600190811b01905550565b60018060a01b0383168152600060206040818401526000845461283c816126db565b806040870152606060018084166000811461285e5760018114612878576128a6565b60ff1985168984015283151560051b8901830195506128a6565b896000528660002060005b8581101561289e5781548b8201860152908301908801612883565b8a0184019650505b50939998505050505050505050565b634e487b7160e01b600052601160045260246000fd5b8082028115828204841417610526576105266128b5565b634e487b7160e01b600052601260045260246000fd5b600082612907576129076128e2565b500490565b6020808252602c908201527f46756e6374696f6e206d7573742062652063616c6c6564207468726f7567682060408201526b19195b1959d85d1958d85b1b60a21b606082015260800190565b6020808252602c908201527f46756e6374696f6e206d7573742062652063616c6c6564207468726f7567682060408201526b6163746976652070726f787960a01b606082015260800190565b634e487b7160e01b600052603260045260246000fd5b6000600182016129cc576129cc6128b5565b5060010190565b6020808252602a908201527f455243323938313a20726f79616c7479206665652077696c6c206578636565646040820152692073616c65507269636560b01b606082015260800190565b60008351612a2f818460208801611fe7565b835190830190612a43818360208801611fe7565b01949350505050565b60208082526021908201527f455243313135353a206d696e7420746f20746865207a65726f206164647265736040820152607360f81b606082015260800190565b80820180821115610526576105266128b5565b60208082526025908201527f455243313135353a207472616e7366657220746f20746865207a65726f206164604082015264647265737360d81b606082015260800190565b6020808252602a908201527f455243313135353a20696e73756666696369656e742062616c616e636520666f60408201526939103a3930b739b332b960b11b606082015260800190565b600060208284031215612b4157600080fd5b5051919050565b81810381811115610526576105266128b5565b600082612b6a57612b6a6128e2565b500690565b6001600160a01b0386811682528516602082015260a060408201819052600090612b9b908301866124c1565b8281036060840152612bad81866124c1565b90508281036080840152612bc1818561200b565b98975050505050505050565b600060208284031215612bdf57600080fd5b8151611f1d81611f6a565b600060033d1115610d735760046000803e5060005160e01c90565b600060443d1015612c135790565b6040516003193d81016004833e81513d6001600160401b038160248401118184111715612c4257505050505090565b8285019150815181811115612c5a5750505050505090565b843d8701016020828501011115612c745750505050505090565b612c8360208286010187612060565b509095945050505050565b60208082526028908201527f455243313135353a204552433131353552656365697665722072656a656374656040820152676420746f6b656e7360c01b606082015260800190565b6001600160a01b03868116825285166020820152604081018490526060810183905260a060808201819052600090612d109083018461200b565b979650505050505050565b60008251612d2d818460208701611fe7565b919091019291505056fe360894a13ba1a3210667c828492db98dca3e2076cc3735a920a3ca505d382bbc416464726573733a206c6f772d6c6576656c2064656c65676174652063616c6c206661696c6564a264697066735822122026e63b96102256377998b07cd5ef637c8534bb10c4a4c14ee369589c97bd488364736f6c63430008130033",
    "sourcePath": "/home/simba/projects/Shata-Genadrop/genadrop-custom/contracts/NftSingle.sol",
    "compiler": {
        "name": "solc",
        "version": "0.8.19+commit.7dd6d404"
    },
    "functionHashes": {
        "balanceOf(address,uint256)": "00fdd58e",
        "balanceOfBatch(address[],uint256[])": "4e1273f4",
        "baseURI()": "6c0360eb",
        "deleteDefaultRoyalty()": "aa1b103f",
        "initialize(string,string,address)": "077f224a",
        "isApprovedForAll(address,address)": "e985e9c5",
        "mint(address,uint256,uint256,string,bytes)": "a4b645eb",
        "mintBatch(address,uint256[],string[])": "146d9ddc",
        "name()": "06fdde03",
        "owner()": "8da5cb5b",
        "proxiableUUID()": "52d1902d",
        "resetTokenRoyalty(uint256)": "8a616bc0",
        "royaltyInfo(uint256,uint256)": "2a55205a",
        "safeBatchTransferFrom(address,address,uint256[],uint256[],bytes)": "2eb2c2d6",
        "safeTransferFrom(address,address,uint256,uint256,bytes)": "f242432a",
        "setApprovalForAll(address,bool)": "a22cb465",
        "setDefaultRoyalty(address,uint96)": "04634d8d",
        "setTokenRoyalty(uint256,address,uint96)": "5944c753",
        "supportsInterface(bytes4)": "01ffc9a7",
        "symbol()": "95d89b41",
        "upgradeTo(address)": "3659cfe6",
        "upgradeToAndCall(address,bytes)": "4f1ef286",
        "uri(uint256)": "0e89341c",
        "withdraw()": "3ccfd60b"
    },
    "gasEstimates": {
        "creation": {
            "codeDepositCost": "2340000",
            "executionCost": "infinite",
            "totalCost": "infinite"
        },
        "external": {
            "balanceOf(address,uint256)": "2703",
            "balanceOfBatch(address[],uint256[])": "infinite",
            "baseURI()": "infinite",
            "deleteDefaultRoyalty()": "7390",
            "initialize(string,string,address)": "infinite",
            "isApprovedForAll(address,address)": "infinite",
            "mint(address,uint256,uint256,string,bytes)": "infinite",
            "mintBatch(address,uint256[],string[])": "infinite",
            "name()": "infinite",
            "owner()": "2434",
            "proxiableUUID()": "infinite",
            "resetTokenRoyalty(uint256)": "7541",
            "royaltyInfo(uint256,uint256)": "5144",
            "safeBatchTransferFrom(address,address,uint256[],uint256[],bytes)": "infinite",
            "safeTransferFrom(address,address,uint256,uint256,bytes)": "infinite",
            "setApprovalForAll(address,bool)": "26727",
            "setDefaultRoyalty(address,uint96)": "infinite",
            "setTokenRoyalty(uint256,address,uint96)": "infinite",
            "supportsInterface(bytes4)": "infinite",
            "symbol()": "infinite",
            "upgradeTo(address)": "infinite",
            "upgradeToAndCall(address,bytes)": "infinite",
            "uri(uint256)": "infinite",
            "withdraw()": "infinite"
        },
        "internal": {
            "_asSingletonArray(uint256)": "infinite",
            "_authorizeUpgrade(address)": "infinite",
            "_beforeTokenTransfer(address,address,address,uint256[] memory,uint256[] memory,bytes memory)": "infinite",
            "_burn(address,uint256,uint256)": "infinite",
            "_burnBatch(address,uint256[] memory,uint256[] memory)": "infinite",
            "_doSafeBatchTransferAcceptanceCheck(address,address,address,uint256[] memory,uint256[] memory,bytes memory)": "infinite",
            "_doSafeTransferAcceptanceCheck(address,address,address,uint256,uint256,bytes memory)": "infinite",
            "_mint(address,uint256,uint256,string memory,bytes memory)": "infinite",
            "_mintBatch(address,uint256[] memory,string memory[] memory)": "infinite",
            "_safeBatchTransferFrom(address,address,uint256[] memory,uint256[] memory,bytes memory)": "infinite",
            "_safeTransferFrom(address,address,uint256,uint256,bytes memory)": "infinite",
            "_setApprovalForAll(address,address,bool)": "infinite",
            "_setBaseURI(string memory)": "infinite",
            "_setTokenURI(uint256,string memory)": "infinite",
            "tokenURI(uint256)": "infinite"
        }
    }
}